:0A089000C0F9A4B0999282F880909C
:10080000900899E493F5802090F6750809AF08EFF9
:100810003395E0FE74902FF58274083EF583E493DF
:10082000F5807FE87E031208641508C3E50864803C
:10083000948050D9C2A0E4F508AF08EF3395E0FEEC
:1008400074902FF58274083EF583E493F5807FE879
:100850007E031208640508C3E5086480948A40D9C1
:04086000D2A0809C06
:10086400E4FDFCC3ED9FEC9E5015E4FBFA0BBB00CA
:0F087400010AEB647B4A70F50DBD00010C80E4B6
:010883002252
:030000000208846F
:0C088400787FE4F6D8FD758108020800BA
:00000001FF
