:0A095200C0F9A4B0999282F88090D9
:10080000C280C281C282D280C281C282750814E5D0
:100810000875F00A120904FF3395E0FE74522FF5B3
:100820008274093EF583E493F5A0E50875F00A1299
:100830000904AFF0EF3395E0FE74522FF58274098E
:100840003EF583E493F5B07FE87E03120926150890
:10085000C3E5086480948050B6C280C281D282759C
:10086000080FE50875F00A120904FF3395E0FE74DD
:10087000522FF58274093EF583E493F5A0E50875DF
:10088000F00A120904AFF0EF3395E0FE74522FF531
:100890008274093EF583E493F5B07FE87E03120984
:1008A000261508C3E5086480948050B6C280D281C2
:1008B000C282750805C3E50864809480500302086D
:1008C00006E50875F00A120904FF3395E0FE74523C
:1008D0002FF58274093EF583E493F5A0E50875F0E1
:1008E0000A120904AFF0EF3395E0FE74522FF5823F
:1008F00074093EF583E493F5B07FE87E0312092680
:04090000150880B1A5
:10092600E4FDFCC3ED9FEC9E5015E4FBFA0BBB0007
:0F093600010AEB647B4A70F50DBD00010C80E4F3
:01094500228F
:03000000020946AC
:0C094600787FE4F6D8FD758108020800F7
:10090400C2D530F707B2D563F0FF05F030E70CB27B
:10091400D5F4048463F0FF05F080018430D502F43B
:020924000422AB
:00000001FF
