:10080000E4F509740A2509F8E4F60509E509B402D6
:10081000F27B007A00790A7D021208767FF47E016D
:1008200012092EE4F509740A2509F876010509E58F
:1008300009B402F27B007A00790A7D021208767F01
:10084000F47E0112092EE4F508AF081208D47F2CBB
:100850007E0112092EE4F509E509C3940850A1E5CB
:100860000825E04401F508FF1208D47FF47E011248
:06087000092E050980E2DB
:10092E00E4FDFCC3ED9FEC9E5015E4FBFA0BBB00FF
:0F093E00010AEB647B4A70F50DBD00010C80E4EB
:01094D002287
:0208D400AD076E
:1008D600E4FB74807E00A803088006CEA2E713CE50
:1008E60013D8F8FFEDF582EF558224FF92A1C2A03E
:0A08F600D2A00BBB08DCC2A2D2A204
:0109000022D4
:080876008B0C8A0D890E8D0F19
:10087E00E4F510E510C3950F5047AB0C7C00E50E68
:10088E00250FF9EC350DFAC3E99510F9EA9400FA43
:10089E0090FFFF120901FDE4FB74807E00A803089F
:1008AE008006CEA2E713CE13D8F8FFEDF582EF55F2
:1008BE008224FF92A1C2A0D2A00BBB08DC0510803F
:0508CE00B2C2A2D2A29B
:0108D3002202
:0300000002094EA4
:0C094E00787FE4F6D8FD758110020800E7
:10090100BB010CE58229F582E5833AF583E02250AB
:1009110006E92582F8E622BBFE06E92582F8E222F5
:0D092100E58229F582E5833AF583E493220F
:00000001FF
