:02091E00C10016
:1008DB00E4F5097F0A7E001208FE2090082000072D
:1008EB00D2007F0122C2000509E509C3943240E31F
:0208FB007F007C
:0108FD0022D8
:10088C00E4F580F5081208DBEF6401600C6380FF6F
:10089C000508E508C3941440EC758055E4F508127E
:1008AC0008DBEF6401600C6380FF0508E508C39466
:1008BC001440EC75800FE4F508E508C3941450C09F
:0F08CC001208DBEF640160B86380FF050880EA63
:1008FE00E4FDFCC3ED9FEC9E5015E4FBFA0BBB0030
:0F090E00010AEB647B4A70F50DBD00010C80E41B
:01091D0022B7
:03000000020800F3
:0C080000787FE4F6D8FD758120020847DF
:10080C0002088CE493A3F8E493A34003F68001F26E
:10081C0008DFF48029E493A3F85407240CC8C333ED
:10082C00C4540F4420C8834004F456800146F6DFBC
:10083C00E4800B010204081020408090091EE47E25
:10084C00019360BCA3FF543F30E509541FFEE493B1
:10085C00A360010ECF54C025E060A840B8E493A378
:10086C00FAE493A3F8E493A3C8C582C8CAC583CAA3
:10087C00F0A3C8C582C8CAC583CADFE9DEE780BE5B
:0109200000D6
:00000001FF
