:10084D00C29012086A120892EF4E60F9120898EFE2
:0D085D0064014E7004D29080ECC29080E8DF
:10086A00C29FD29E53890F438920758DFDD28ED2A5
:04087A0099D29C2251
:08088A003099FDC2998F9922FB
:06082D008B088A09890A0C
:10083300E4FEAB08AA09A90A8E8275830012080098
:09084300FF600612088A0E80E92C
:01084C002289
:06089200A298E433FF22EE
:05089800C298AF992297
:0300000002087E75
:0C087E00787FE4F6D8FD75810A02084D71
:10080000BB010CE58229F582E5833AF583E02250AD
:1008100006E92582F8E622BBFE06E92582F8E222F7
:0D082000E58229F582E5833AF583E4932211
:00000001FF
