:100884006E6861702076616F206B792074792069BD
:0F0894006E207468756F6E67002D3E000D0A00B0
:100800001208A37BFF7A087984120864120000EFB3
:100810004E60F91208D48F0874E02508F5087BFFB4
:100820007A08799D120864AF081208C37BFF7A0822
:0708300079A012086480CCDE
:1008A300C29FD29E53890F438920758DFDD28ED26C
:0408B30099D29C2218
:0B08C3008F0C3099FDC299E4F59922DA
:0608CE00A298E433FF22B2
:0508D400C298AF99225B
:060864008B098A0A890BD2
:10086A00E4FEAB09AA0AA90B8E8275830012083727
:09087A00FF60061208C30E80E9BC
:010883002252
:030000000208B73C
:0C08B700787FE4F6D8FD75810C02080083
:10083700BB010CE58229F582E5833AF583E0225076
:1008470006E92582F8E622BBFE06E92582F8E222C0
:0D085700E58229F582E5833AF583E49322DA
:00000001FF
