:10082D0012089620900F7F147E001208767F011219
:10083D0008B63090FD2091EB7F147E00120876E40F
:09084D00FF1208B62091DC80FBCB
:10089600C29FD29E53890F438920758DFDD28ED279
:0408A60099D29C2225
:0808B6003099FDC2998F9922CF
:060856008B088A09890AE3
:10085C00E4FEAB08AA09A90A8E827583001208006F
:09086C00FF60061208B60E80E9D7
:010875002260
:0608BE00A298E433FF22C2
:0508C400C298AF99226B
:10087600E4FDFCC3ED9FEC9E5015E4FBFA0BBB00B8
:0F088600010AEB64714A70F50DBD00010C80E4AE
:010895002240
:030000000208AA49
:0C08AA00787FE4F6D8FD75810A02082D65
:10080000BB010CE58229F582E5833AF583E02250AD
:1008100006E92582F8E622BBFE06E92582F8E222F7
:0D082000E58229F582E5833AF583E4932211
:00000001FF
