:10087F00D28AD2AAD2AFC2A3C2A2C2A1C2A04387B8
:03088F000180FBEA
:03001300020800E0
:10080000C0E0C0F0C083C082C0D075D000C000C0BE
:1008100001C002C003C004C005C006C0077F147E2B
:100820000012085F209005B2A03090FD209105B223
:10083000A23091FD209205B2A23092FD209305B224
:10084000A33093FDD007D006D005D004D003D0024A
:0F085000D001D000D0D0D082D083D0F0D0E03211
:10085F00E4FDFCC3ED9FEC9E5015E4FBFA0BBB00CF
:0F086F00010AEB647B4A70F50DBD00010C80E4BB
:01087E002257
:0300000002089261
:0C089200787FE4F6D8FD75810702087F2E
:00000001FF
