:100D7F0053554E004D4F4E005455450057454E00AC
:100D8F005448550046524900534154002F32300009
:100D9F00FF0D7FFF0D83FF0D87FF0D8BFF0D8FFF66
:050DAF000D93FF0D97FC
:10080000120F6F120F24120C8C75140075150075E1
:10081000160975170075180075190B751A00751BE8
:1008200000751C0A7B007A00790812091CE5106526
:100830000B60D6850B10E50875F00A842430FB7D2B
:10084000057F01120ED5E50875F00A84E5F0243025
:10085000FF120F147F3A120F14E50B75F00A84246F
:1008600030FF120F14E50B75F00A84E5F02430FF19
:10087000120F1475140075150075160D7517007597
:10088000180075190E751A00751B00751C0F7B007A
:100890007A00790C1209FAE50C75F003A4249CF592
:1008A00082E4340DF583E493FB740193FA740293AC
:1008B000F97D027F02120E857F20120F14E50D755F
:1008C000F00A842430FF120F14E50D75F00A84E558
:1008D000F02430FF120F147F2F120F14E50E75F065
:1008E0000A842430FF120F14E50E75F00A84E5F037
:1008F0002430FF120F147BFF7A0D799B120E65E5F1
:100900000F75F00A842430FF120F14E50F75F00AFA
:0C09100084E5F02430FF120F14020809E7
:100E2500E4FDFCC3ED9FEC9E5015E4FBFA0BBB0003
:0F0E3500010AEB647B4A70F50DBD00010C80E4EF
:010E4400228B
:100F0200EF3392A7EFA2E692A6A2E592A5A2E492FF
:020F1200A42217
:070EBD00120F02D282C28273
:100EC400EFA2E392A7A2E292A6A2E192A51392A4B2
:010ED40022FB
:070F4C00AE071FEE70FA2250
:100C8C00C280C2827F147E00120E257F03120EC416
:100C9C00D282C2827F057E00120E257F03120EC403
:100CAC00D282C2827F64120F4C7F03120EC4D28296
:100CBC00C2827F017E00120E257F02120EC4D282E8
:100CCC00C2821F7E00120E257F28120E457F0C1249
:0C0CDC000E457F01120E457F06020E45FA
:100E4500AE07C280120EBDD282C282EF24FE6003BD
:100E55000470077F027E00020E257F25120F4C22AB
:100F1400AE07D280120EBDD282C2827F29020F4C4C
:020ED5008B117F
:100ED700BF01047F8080027FC0ED142FFF120E45F3
:050EE700AF11020F1421
:060E65008B148A158916AA
:100E6B00E4FDAB14AA15A9168D82758300120AE254
:090E7B00FF6006120F140D80E95E
:010E8400224B
:060E85008B118A12891393
:100E8B00BF01047F8080027FC0ED142FFF120E453F
:090E9B00AB11AA12A913020E65A5
:060DB4008B368A378938F6
:100DBA00EF75F008A42440FF120E45E4FDAB36AAF5
:100DCA0037A9388D82758300120AE2FF120F140DBB
:030DDA00BD08EA67
:010DDD0022F3
:0F0F2400E4FF120DDEAD0753057FE4FF020EA4BC
:100EA4008F118D12120F537FD0120EECAF11120E50
:090EB400ECAF12120EEC020F6803
:020DDE008F1173
:100DE000120F537FD0120EECAF11120EEC120F53F4
:100DF0007FD1120EECC201120E028F12120F68AFD9
:010E000012DF
:010E010022CE
:06091C008B118A12891301
:10092200120F537FD0120EECE4FF120EEC120F5393
:100932007FD1120EECD201120E028F1FD201120EC3
:10094200028F1EC201120E028F1D120F68531F7FEB
:10095200E51FC4540F75F00AA4FFE51F540F2FAB17
:1009620017AA18A919120B0F531E7FE51EC4540FA4
:1009720075F00AA4FFE51E540F2FAB14AA15A91691
:10098200120B0FE51D30E633AB1AAA1BA91C740C1F
:10099200120B0FE51D30E504D2008002C200531D88
:1009A2001FE51DC4540F75F00AA4FFE51D540F2F57
:1009B200AB11AA12A913120B0F803AAB1AAA1BA9E8
:1009C2001C7418120B0F531D3FE51DC4540F75F014
:1009D2000AA4FFE51D540F2FAB11AA12A913120B83
:1009E2000FAB11AA12A913120AC9C3940C5004C264
:0709F200008002D200A20008
:0109F90022DB
:100B98008F2D8C2E8D2F8B30E53075F00A84C45440
:100BA800F0FFE53075F00A84E5F04FF530AE2EAF72
:100BB8002F7C007D0A120B43EFC4F8540FC868FB62
:100BC800EEC454F048FAAE2EAF2F7C007D0A120B0B
:100BD80043EC4AF52EED4BF52FE52D75F00A84C44C
:100BE80054F0FFE52D75F00A84E5F04FF52DE53159
:100BF800B40C09432D40300203432D20120F537FBC
:100C0800D0120EECE4FF120EECAF30120EECAF2F48
:0B0C1800120EECAF2D120EEC020F6864
:1009FA008B118A128913120F537FD0120EEC7F03C8
:100A0A00120EEC120F537FD1120EECD201120E020B
:100A1A00AB11AA12A913EF120B0FD201120E02ABDD
:100A2A0014AA15A916EF120B0FD201120E02AB1758
:100A3A00AA18A919EF120B0FC201120E02AB1AAAB9
:100A4A001BA91CEF120B0F120F68AB11AA12A913E4
:100A5A00120AC95407120B0FAB14AA15A916120AC7
:100A6A00C9543F120B0FAB14AA15A916120AC9FFD3
:100A7A00C4540F75F00AA4FEEF540F2E120B0FABDD
:100A8A0017AA18A919120AC9541F120B0FAB17AAD1
:100A9A0018A919120AC9FFC4540F75F00AA4FEEF67
:100AAA00540F2E120B0FAB1AAA1BA91C120AC9FF4C
:0F0ABA00C4540F75F00AA4FEEF540F2E020B0F59
:100C23008F328D338B34E53375F00A84C454F0FF6F
:100C3300E53375F00A84E5F04FF533E53475F00AD2
:100C430084C454F0FFE53475F00A84E5F04FF534BD
:100C5300E53575F00A84C454F0FFE53575F00A8470
:100C6300E5F04FF535120F537FD0120EEC7F0312D0
:100C73000EECAF32120EECAF33120EECAF34120E99
:090C8300ECAF35120EEC020F6813
:080D43008F218B228A238924F1
:100D4B00E4F526120F537FD0120EECAF21120EECEE
:100D5B00E4F526E526C395255017AB22AA23A92433
:100D6B00852682758300120AE2FF120EEC0526809F
:040D7B00E2020F6819
:080CE8008F278B288A29892A35
:100CF000120F537FD0120EECAF27120EEC120F53CF
:100D00007FD1120EECE4F52CE52B14FFE52CC39FEC
:100D10005019D201120E02AB28AA29A92A852C82C9
:100D2000758300EF120B21052C80DDC201120E022B
:100D3000AB28AA29A92A852C82758300EF120B21E2
:030D4000020F6837
:050F6F00D290D2912296
:070F5300D290C291C290226E
:0C0F3300D291D290A2919201C290A20132
:010F3F00228F
:100EEC00E4FEEF339291D290C290EF25E0FF0EBE5C
:050EFC0008F0120F33A5
:010F010022CD
:070F5A00C291D290C2902267
:070F6100D291D290C2902250
:100E0200E4FFFED291D290EF25E0FF309103430739
:100E120001C2900EBE08EC300105120F5A80031277
:020E22000F615E
:010E240022AB
:070F6800C291D290D2912248
:03000000020F40AC
:0C0F4000787FE4F6D8FD758138020800C7
:100AC900BB010689828A83E0225002E722BBFE022B
:090AD900E32289828A83E493225E
:100AE200BB010CE58229F582E5833AF583E02250C9
:100AF20006E92582F8E622BBFE06E92582F8E22213
:0D0B0200E58229F582E5833AF583E493222C
:100B0F00BB010689828A83F0225002F722BBFE01C5
:020B1F00F322BF
:100B2100F8BB010DE58229F582E5833AF583E8F00A
:100B3100225006E92582C8F622BBFE05E92582C8B6
:020B4100F2229E
:100B4300BC000BBE0029EF8DF084FFADF022E4CC96
:100B5300F875F008EF2FFFEE33FEEC33FCEE9DEC5F
:100B6300984005FCEE9DFE0FD5F0E9E4CEFD22EDA5
:100B7300F8F5F0EE8420D21CFEADF075F008EF2FEF
:100B8300FFED33FD4007985006D5F0F222C398FDE0
:050B93000FD5F0EA227D
:00000001FF
