:0A088700C0F9A4B0999282F88090A5
:10080000E4F508E50875F00A84F509E50875F00ACD
:100810008485F00AE4F50BF50CE50990088793F55B
:10082000A0C2B07F017E0012085BD2B0E50A90083A
:100830008793F5A0C2B17F017E0012085BD2B1059B
:100840000CE50C7002050BC394F4E50B940140C950
:0B0850000508E508C3946440AA80A5D9
:10085B00E4FDFCC3ED9FEC9E5015E4FBFA0BBB00D3
:0F086B00010AEB647B4A70F50DBD00010C80E4BF
:01087A00225B
:0300000002087B78
:0C087B00787FE4F6D8FD75810C020800BF
:00000001FF
