:10090F00546F6920796575206E756F632076696500
:06091F0074206E616D0002
:1008DE00C2A08FB0D2A1C2A1EFD3940250047F0266
:0A08EE0080027F017E0012089F22A5
:0F092500D2A08FB0D2A1C2A17F017E0002089F95
:0208F8008B0F64
:1008FA00BF01047F8080027FC0EF2D14FF1208DE43
:05090A00AF0F020925FA
:060859008B0B8A0C890DD7
:10085F00E4F50EAB0BAA0CA90D850E827583001261
:0C086F000800FF6007120925050E80E755
:01087B00225A
:0608BF008B088A09890A7A
:1008C500BF01047F8080027FC0EF2D14FF1208DE78
:0908D500AB08AA09A90A0208599E
:10082D007F301208DE7F057E0012089F7F30120890
:10083D00DE7F017E0012089F7F301208DE7F3812A6
:0C084D0008DE7F011208DE7F0C0208DECE
:10087C0012082D7BFF7A09790F7D017F011208BFC9
:10088C007F1E7E0012089F7F1C1208DE7F0212085A
:03089C00DE80FEFD
:10089F00E4FDFCC3ED9FEC9E5015E4FBFA0BBB008F
:0F08AF00010AEB647B4A70F50DBD00010C80E47B
:0108BE002217
:03000000020934BE
:0C093400787FE4F6D8FD75810F02087C86
:10080000BB010CE58229F582E5833AF583E02250AD
:1008100006E92582F8E622BBFE06E92582F8E222F7
:0D082000E58229F582E5833AF583E4932211
:00000001FF
